:020000040800F2
:1000000000200020E91B0008590300085B030008DA
:1000100000000000000000000000000000000000E0
:100020000000000000000000000000005D03000868
:1000300000000000000000005F03000861030008EA
:10004000391C000800000000391C0008391C000899
:10005000391C0008391C0008391C0008391C00082C
:100060000000000069030008391C0008391C000862
:10007000391C0008391C0008391C00080000000069
:10008000790300080000000000000000391C00088F
:1000900000000000391C0008391C0008391C000849
:1000A000391C0008391C0008391C0008391C0008DC
:0800B000391C000800000000EB
:1000B80010B5064C2378002B07D1054B002B02D036
:1000C800044800E000BF0123237010BD3C04002059
:1000D800000000002C1E0008044B10B5002B03D0B4
:1000E8000349044800E000BF10BDC04600000000FE
:1000F800400400202C1E0008002243088B4274D3C1
:1001080003098B425FD3030A8B4244D3030B8B4210
:1001180028D3030C8B420DD3FF22090212BA030C19
:100128008B4202D31212090265D0030B8B4219D3FA
:1001380000E0090AC30B8B4201D3CB03C01A52411A
:10014800830B8B4201D38B03C01A5241430B8B4262
:1001580001D34B03C01A5241030B8B4201D30B034B
:10016800C01A5241C30A8B4201D3CB02C01A524172
:10017800830A8B4201D38B02C01A5241430A8B4235
:1001880001D34B02C01A5241030A8B4201D30B021E
:10019800C01A5241CDD2C3098B4201D3CB01C01A38
:1001A800524183098B4201D38B01C01A5241430942
:1001B8008B4201D34B01C01A524103098B4201D330
:1001C8000B01C01A5241C3088B4201D3CB00C01A9D
:1001D800524183088B4201D38B00C01A5241430815
:1001E8008B4201D34B00C01A5241411A00D201463A
:1001F800524110467047FFE701B5002000F006F8AD
:1002080002BDC0460029F7D076E770477047C04660
:1002180000B583B0094A916B012319439163926B2E
:1002280013400193019B00220021092000F06CFA81
:10023800092000F099FA03B000BDC0460010024042
:1002480070B586B01422002101A801F015FD134AEB
:10025800516B012319435163526B13400093009B68
:1002680080267601A025ED0500223100280000F047
:100278004DFC4F23019300240294039401A9280004
:1002880000F088FB0196112302930394049401A9BA
:10029800280000F07FFB06B070BDC0460010024089
:1002A80072B6FEE700B593B03422002105A801F02C
:1002B800E3FC1022002101A801F0DEFC8020800070
:1002C80000F02AFC02230593FE33089300230993C8
:1002D80040220A920C9305A800F048FC00280DD192
:1002E800072301930023029303930493002101A899
:1002F80000F0EAFE002803D113B000BDFFF7D0FFDD
:10030800FFF7CEFF10B500F0D9F9FFF7CBFFFFF7E5
:1003180097FFFFF77DFF00F049F900F0C3F8FEE70B
:1003280082B00A4B196C012211431964196C0A40F6
:100338000092009ADA6B802149050A43DA63DB6B85
:100348000B400193019B02B07047C0460010024069
:10035800FEE7FEE77047704710B500F0C3F910BD1F
:1003680010B5024800F0B0FA10BDC046580400208D
:1003780010B5024801F0C2F810BDC04600050020C3
:100388007047000010B582B004000368204A934209
:1003980004D0204A93420CD002B010BD1E4A116C02
:1003A8008020000101431164136C03400093009BFB
:1003B800F2E7194AD16B02231943D163D26B134078
:1003C8000193019B1548164B036021234360113BA1
:1003D80083600023C36080220261803242618022F0
:1003E800D2008261C361036200F016FA00280BD1C3
:1003F8000A4BA3629C6200220021102000F084F9BD
:10040800102000F0B1F9C7E7FFF74AFFF0E7C04650
:10041800002C014000040040001002405804002055
:100428000800024010B588B004001422002103A877
:1004380001F022FC2368184A934204D0174A9342D9
:1004480016D008B010BD164A516B012319435163E9
:10045800526B13400193019B80235B000393FE3B87
:1004680004930793A02003A9C00500F093FAE8E7D6
:100478000B4A516B012319435163526B1A40029284
:10048800029A802203927E3A04920793A02003A93D
:10049800C00500F07FFAD4E7002C014000040040BA
:1004A8000010024000B59DB01022002118A801F0EC
:1004B800E3FB0C22002115A801F0DEFB1C22002121
:1004C8000EA801F0D9FB3422002101A801F0D4FBC9
:1004D8003348344B03601323436000238360324A5C
:1004E800C26003614361836101F006F9002844D1C9
:1004F80080235B01189318A9294801F04BFA0028BA
:100508003ED1274801F028F900283CD10023159353
:100518001693179315A9224801F0C0FA002835D17F
:1005280060230E9300230F93109311931293139348
:10053800149300220EA91A4801F07EF9002828D148
:10054800002301930293039304930593802292015D
:100558000692079308930993802292040A920B93B8
:100568000C930D9301A90E4801F0D0FA002813D17D
:100578000B48FFF757FF1DB000BDFFF791FEB7E727
:10058800FFF78EFEBDE7FFF78BFEBFE7FFF788FE9C
:10059800C6E7FFF785FED3E7FFF782FEE8E7C04628
:1005A800B4040020002C0140FFFF000000B58FB00C
:1005B800102200210AA801F05FFB0C22002107A8E5
:1005C80001F05AFB1C220021684601F055FB234824
:1005D800234B03600023436083601022C2600361E1
:1005E800836101F089F8002828D180235B010A93F0
:1005F8000AA91A4801F0CEF9002822D1174801F0BB
:10060800ABF8002820D100230793099307A91348C2
:1006180001F044FA00281AD16023009300230193C3
:1006280002930493042269460C4801F005F9002856
:1006380010D10A48FFF7F6FE0FB000BDFFF730FEF5
:10064800D3E7FFF72DFED9E7FFF72AFEDBE7FFF731
:1006580027FEE1E7FFF724FEEBE7C0460005002090
:100668000004004010B50400114B1978002901D18D
:10067800012010BDFA208000FFF73EFD01000D4B60
:100688001868FFF739FD00F07BF800280DD1032C1E
:1006980001D90120EDE7013000222100404200F09D
:1006A80033F8054B1C600020E3E70120E1E7C04672
:1006B80004000020000000200800002010B5084AAF
:1006C800116880235B000B4313600320FFF7CAFF08
:1006D800041E02D00124200010BDFFF721FEFAE716
:1006E80000200240034B1B78034A11685B18136013
:1006F8007047C046040000204C050020014B1868D4
:100708007047C0464C05002070B5002811DB8308EF
:10071800134EC0339B009D5903242040C000FF2284
:1007280014008440A54389010A4082402A439A5113
:1007380070BD0F230340083B9B0806339B00094A02
:10074800944663445C6803221040C000FC321500E4
:100758008540AC4389010A40824022435A60E7E75A
:1007680000E100E000ED00E0002805DB1F23184051
:100778001E3B8340014A13607047C04600E100E019
:10078800013880235B0498420FD2094A5060094817
:10079800036A1B021B0AC02109060B4303620023DC
:1007A800936007331360002070470120FCE7C046C0
:1007B80010E000E000ED00E010B50400036C9B08B9
:1007C800094A944663449B004364FF202368184009
:1007D80008381421FFF790FC044BA3641F2318402A
:1007E8001E3B8340E36410BD008200108008024075
:1007F8003F2342681340064A9A1892000265054A48
:100808004265013B03221A400123934083657047E8
:100818003F8200104009024070B5041E4DD00568A3
:10082800274BE8181421FFF767FC80002064252374
:100838000222E2542B68234A13402B6021680A687D
:10084800A368E06803432069034360690343A06920
:100858000343E0690343206A034313430B6020000A
:10086800FFF7AAFF8023DB01A2689A4218D0626CC6
:100878003F2361680B401360A36CE26C5A606368A5
:10088800013B032B0FD9002323656365A365002370
:10089800E36325220121A154013AA354002070BD2D
:1008A80000236360E3E72000FFF7A2FF236D002227
:1008B8001A60636DA26D5A60E9E70120EFE7C04650
:1008C800F8FFFDBF0F80FFFF70B5314B1968046852
:1008D80025681C23026C134004229A40114216D04A
:1008E8006A0714D523689B0603D42368042293431C
:1008F8002360274C63681C21026C114004228A4043
:1009080013436360036B002B00D0984770BD02222D
:100918009A4011421CD0AA071AD523689B0606D410
:1009280023680A22934323602523093AC254184CAA
:1009380063681C21026C114002228A4013436360E1
:1009480024230022C254C36A002BDFD09847DDE776
:1009580008229A401142D9D02B07D7D523680E22F6
:10096800934323600A4C62681C21036C19400123DD
:100978001D008D402A436260C363252283542333BC
:100988000022C254436B002BC0D09847BEE7C04634
:1009980000000240F0B500235AE084685F00032697
:1009A800BE40B4432600CC68BC40344384604468ED
:1009B80094434A681609012232409A402243426011
:1009C80056E0DC080834A400265805321A40920084
:1009D8000F279740BE430F6997403A003243225091
:1009E8005AE0032600E00026A64034003C43434E6C
:1009F8001832920094513468EA432600AE434F6897
:100A0800FF0201D52C4326003C4C26606468260072
:100A180016404F68BF0201D52C432600374C66604C
:100A28008426A459260016404F68BF0301D52C43DD
:100A38002600324C8427E6518026A45922404E686D
:100A4800F60301D52A0022432C4D80242A51013374
:100A58000C682200DA404FD001229A402500154048
:100A68001442F4D003244E683440013C012C94D93C
:100A780003224C682240032A09D0C2685E0003247E
:100A8800B440A24314008A68B2402243C2600322E1
:100A98004C682240022A94D004685E0003221700A2
:100AA800B740BC434F683A40B24022430260C0227C
:100AB80092024C681442CAD09A0814001834A40050
:100AC8000E4EA75903241C40E4000F26A640B74346
:100AD800A026F605B04286D0094EB04208D0094E8D
:100AE800B04207D0084EB04200D17AE705267BE72E
:100AF800012679E7022677E7F0BDC04600180240D4
:100B08000004005000080050000C0050002A01D0DA
:100B1800816170478162FCE710B5104A136810497B
:100B28000B400343136080239B00984201D00020B0
:100B380010BD0C4B1B685800C01840000A49FFF74D
:100B4800DBFA0130054B5B695B0503D5002803D050
:100B58000138F7E70020EBE70320E9E700700040E1
:100B6800FFF9FFFF0000002040420F0070B582B07F
:100B7800041E00D129E20368DB0739D5C14A916810
:100B880038230B40D16803220A40102B26D0082BAB
:100B980026D063688022520293427FD0A022D202DC
:100BA800934200D181E0B74B1A68B7490A401A60EE
:100BB8001A68B6490A401A606368002B00D180E0C1
:100BC800FFF79CFD0500AF4B1B689B0310D4FFF794
:100BD80095FD401B6428F6D90320F7E1032AD6D1F6
:100BE800A84B1B689B0303D56368002B00D1EFE17A
:100BF80023689B0731D5A34A936838210B40D168F5
:100C080003220A40102B6AD0002B6BD19D4A126830
:100C1800520503D5E268002A00D1DBE19948426811
:100C28009B490A40616909020A434260002B0DD1C1
:100C3800036898490B4021690B4303600368DB0A8A
:100C480007221A40944BD340944A1360944B186877
:100C5800FFF708FD002800D0BEE123681B0700D479
:100C680081E0884B9A6838231340182B73D0A36906
:100C7800002B00D1B4E0834A136E01210B431366A5
:100C8800FFF73CFD05007F4B1B6E9B076BD4FFF7FE
:100C980035FD401B0228F6D9032097E1794A1168EF
:100CA80080235B020B43136086E7764B196880222A
:100CB800D2020A431A601968802252020A431A6053
:100CC8007AE7FFF71BFD05006E4B1B689B038FD56A
:100CD800FFF714FD401B6428F6D9032076E1022AA9
:100CE80092D193E7E368002B22D0664A13686949DA
:100CF8000B4021690B431360116880235B000B4391
:100D08001360FFF7FBFC05005E4B1B685B0506D410
:100D1800FFF7F4FC401B0228F6D9032056E1594995
:100D28004B685B4A13406269120213434B6094E7B5
:100D3800544A13685B490B401360FFF7DFFC05005A
:100D4800504B1B685B0588D5FFF7D8FC401B022871
:100D5800F6D903203AE14B4B1B6E9B0703D5A369D9
:100D6800002B00D13AE123685B0700D4A2E0454B91
:100D78009A6838231340202B45D0424BDB6BDB00AD
:100D88004AD4404AD16B802040050143D163D36BDC
:100D980003400193019B0125434B1B68DB053DD5AF
:100DA800A368012B4ED0052B52D0364BDA6D0121AA
:100DB8008A43DA65DA6D03318A43DA65A368002B62
:100DC80050D0FFF79BFC06002E4BDB6D9B076FD4C2
:100DD800FFF794FC801B354B9842F5D90320F5E0CA
:100DE800284A136E01218B431366FFF787FC050021
:100DF800244B1B6E9B07B6D5FFF780FC401B0228CF
:100E0800F6D90320E2E01F4BDB6D9B0752D5A368A0
:100E1800002B4FD10120D9E00025BDE7224A1168F7
:100E280080235B000B431360FFF768FC06001E4B32
:100E38001B68DB05B4D4FFF761FC801B0228F6D9D8
:100E48000320C3E00F4AD36D01210B43D365B5E7F7
:100E58000C4BDA6D04210A43DA65DA6D03390A436B
:100E6800DA65ABE7FFF74AFC0600064BDB6D9B072C
:100E78001ED5FFF743FC801B0C4B9842F5D9032085
:100E8800A4E0C04600100240FFFFFEFFFFFFFBFF8B
:100E9800FF80FFFFFFC7FFFF0024F40000000020D1
:100EA80008000020FFFEFFFF0070004088130000CC
:100EB800012D1ED0E369002B00D191E04F4A9168C3
:100EC80038220A40102A5ED0022B18D04B4A1368E9
:100ED8004B490B401360FFF711FC0400474B1B689C
:100EE8009B0149D5FFF70AFC001B0228F6D903200D
:100EF8006CE0424AD36B43490B40D363DAE73F4A7D
:100F080013683F490B401360FFF7F8FB05003B4BA4
:100F18001B689B0106D5FFF7F1FB401B0228F6D999
:100F2800032053E0354AD36837491940236A606A79
:100F38000343A06A00020343E06A0343206B0343B0
:100F48000B43D360116880235B040B431360D168A3
:100F580080235B050B43D360FFF7D0FB0400274BCE
:100F68001B689B0106D4FFF7C9FB001B0228F6D9B2
:100F780003202BE0002029E0204AD36823490B40B6
:100F8800D360002022E0012B2CD01C4BDA6803230D
:100F98001340216A8B4227D170231340616A8B4228
:100FA80024D1FE21C9011140A36A1B0299421FD115
:100FB800F8239B031340E16A8B421BD1520F52075F
:100FC800236B9A4218D1002000E0012002B070BDC6
:100FD8000120FBE70120F9E70120F7E70120F5E709
:100FE8000020F3E70120F1E70120EFE70120EDE71A
:100FF8000120EBE70120E9E70120E7E700100240C4
:10100800FFFFFFFEFFFFFFEF8C80C11FFCFFFEEF1D
:1010180010B52A4B9B6838221A4207D1274B1A6809
:10102800D20A072313402648D84010BD234B9A689C
:1010380038231340082B3BD0204B9A6838231340A1
:10104800102B0DD01D4B9A6838231340202B31D01C
:101058001A4B9A6838231340182B26D00020E4E74F
:10106800164AD1680D3B0B40D2681209072111407E
:101078000131032B0FD01248FFF73EF80F4BDA6807
:10108800120A7F23134058430C4BD968490F01318A
:10109800FFF732F8C9E70B48FFF72EF8074BDA6875
:1010A800120A7F2313405843EEE7FA20C001BCE739
:1010B8000448BAE780200002B7E7C04600100240A3
:1010C8000024F40000127A0070B504000D00002816
:1010D80000D1AAE0574B1A68072313408B4221D34B
:1010E80023689A070ED55B0705D5534A9168E02314
:1010F800DB010B439360504A936850490B40A16849
:101108000B4393602368DB0754D56368012B20D019
:10111800022B3BD0002B3FD1474A126852051CD402
:1011280001206AE0434A136807218B432B4313606D
:10113800FFF7E4FA06003F4B1A6807231340AB4257
:10114800CED0FFF7DBFA801B3D4A9042F3D903204B
:1011580053E0394A1268920369D537498A680720EB
:10116800824313438B60FFF7C9FA0600324B9B6832
:1011780038221A406368DB009A421BD0FFF7BEFA98
:10118800801B2F4B9842F1D9032036E02A4A126877
:101198009201E2D4012030E0032B05D0264AD26D1B
:1011A8009207DAD4012028E0234A126E9207D4D499
:1011B800012022E01F4B1A6807231340AB421DD8B9
:1011C80023685B0706D51C4A93681E490B40E168F3
:1011D8000B439360FFF71CFF174B9A68120A0F2303
:1011E80013409B00184A9A581F231340D840174BA6
:1011F8001860174B1868FFF735FA70BD0D4A136869
:1012080007218B432B431360FFF778FA0600094B3D
:101218001A6807231340AB42D2D0FFF76FFA801B3E
:10122800074B9842F3D90320E7E70120E5E70120BF
:10123800E3E7C0460020024000100240FFF0FFFF35
:1012480088130000FF8FFFFF441E000800000020E5
:101258000800002030B5036A012293430362036A41
:1012680042688469154D2C400D682C430225AB4318
:101278008D682B43124DA84205D0124DA84202D0CA
:10128800114DA84205D10825AB43CD682B43042551
:10129800AB430B4DA84205D00A4DA84202D00A4DD7
:1012A800A84205D1094D2A404D692A438D692A4330
:1012B800426084614A684263036230BD8CFFFEFF6E
:1012C800002C01400044014000480140FFFCFFFFA2
:1012D80070B5036A184A13400362036A4468C26916
:1012E800164D2A400E681643154A13408A681202A2
:1012F8001343144A904216D0124A904205D0124A1B
:10130800904202D0114A904207D1114A22404C69BA
:10131800240114438A6915012C434460C6614A6854
:10132800C263036270BD0B4A1A40CB681B021343A9
:10133800094A1340E0E7C046FFFEFFFF8CFFFEFFAF
:10134800FFFDFFFF002C0140004401400048014020
:10135800FFCFFFFFFFF7FFFFFFFBFFFF30B5036A7B
:10136800114A13400362036A4568C2690F4C224060
:101378000C68240222430E4C1C408B681B03234339
:101388000C4CA04205D00C4CA04202D00B4CA04201
:1013980004D10B4C25404C69A40125434560C2612A
:1013A8004A680264036230BDFFEFFFFFFF8CFFFE57
:1013B800FFDFFFFF002C01400044014000480140CE
:1013C800FFBFFFFF30B5036A114A13400362036A87
:1013D8004268446D0F4D2C400D682C430E4D1D4046
:1013E8008B681B042B430D4DA84205D00C4DA84219
:1013F80002D00C4DA84204D1054D2A404D692D025A
:101408002A43426044654A688265036230BDC0462B
:10141800FFFFFEFF8FFFFEFFFFFFFDFF002C0140D7
:10142800004401400048014030B5036A114A1340A6
:101438000362036A4568426D0F4C22400C6824021F
:1014480022430E4C1C408B681B0523430C4CA042C6
:1014580005D00C4CA04202D00B4CA04204D10B4C3E
:1014680025404C69A4022543456042654A68C26527
:10147800036230BDFFFFEFFFFF8FFFFEFFFFDFFFBF
:10148800002C01400044014000480140FFFFFBFFE1
:1014980030B5036A046A0125AC4304628469EF35F8
:1014A800AC43120122430A24A3430B438261036223
:1014B80030BD000030B5036A1024A3430362846979
:1014C800036A054D2C4012032243A024A3430901BB
:1014D80019438261016230BDFF0FFFFF8368034A31
:1014E80013400B4307210B43836070478FFFCFFFE7
:1014F80070477047704770477047704710B50400D1
:1015080003681A6992070FD5DA6892070CD5032287
:1015180052421A610123037703689B699B076AD0CB
:10152800FFF7E9FF0023237723681A69520712D5CA
:10153800DA6852070FD5052252421A61022323772F
:1015480023689A69C0239B001A425AD02000FFF7EB
:10155800D2FF0023237723681A69120710D5DA68A7
:1015680012070DD5092252421A61042323772368F2
:10157800DB699B074CD02000FFF7BDFF00232377D2
:1015880023681A69D20612D5DA68D2060FD5112255
:1015980052421A61082323772368DA69C0239B0023
:1015A8001A423CD02000FFF7A6FF002323772368C8
:1015B8001A69D20702D5DA68D20737D423681A69BC
:1015C800120602D5DA68120637D423681A69D205DA
:1015D80002D5DA68120637D423681A69520602D58A
:1015E800DA68520636D423681A69920602D5DA6890
:1015F800920636D410BDFFF77DFF2000FFF77CFF71
:1016080090E72000FFF776FF2000FFF775FFA0E7BF
:101618002000FFF76FFF2000FFF76EFFAEE7200006
:10162800FFF768FF2000FFF767FFBEE7022252427C
:101638001A612000FFF75DFFC0E7812252421A615C
:10164800200000F0CAFAC0E7094A1A61200000F039
:10165800C5FAC1E7412252421A612000FFF74DFF47
:10166800C1E7212252421A61200000F0B5FAC1E711
:10167800FFFEFFFF03681A4A904202D0194A9042BF
:1016880003D1702293434A681343154A90420BD002
:10169800144A904208D0144A904205D0134A904206
:1016A80002D0134A904203D1124A1340CA68134326
:1016B800802293434A69134303608B68C3620B68B3
:1016C8008362074B984205D0084B984202D0084BDA
:1016D800984201D10B690363012343617047C046F7
:1016E800002C01400004004000200040004401405C
:1016F80000480140FFFCFFFF70B5041E2AD03D23BF
:10170800C35C002B20D03D2502236355210001C96D
:10171800FFF7B0FF01234822A3540A3AA354013229
:10172800A3540132A3540132A3540132A354013209
:10173800A3540132A3540132A3540132A3540132F9
:10174800A3546355002070BD3C330022C254FEF7F9
:1017580019FED8E70120F6E770B5041E2AD03D230C
:10176800C35C002B20D03D2502236355210001C90D
:10177800FFF780FF01234822A3540A3AA3540132F9
:10178800A3540132A3540132A3540132A3540132A9
:10179800A3540132A3540132A3540132A354013299
:1017A800A3546355002070BD3C330022C254FFF798
:1017B8009FFED8E70120F6E730B5036A102293436D
:1017C8000362036A45688469164A14400A6812026B
:1017D8001443202293438A6812011343124A904209
:1017E80016D0114A904205D0104A904202D0104AB1
:1017F800904207D10F4A2A404D69AD0015438A69C6
:1018080092001543456084614A688263036230BD73
:10181800802293431A00CB681B0113434022934351
:10182800DFE7C046FF8CFFFE002C0140004401406A
:1018380000480140FFF3FFFF70B504000D003C2392
:10184800C35C012B00D192E03C230121C154142A2E
:1018580000D987E09200474B9B589F4629000068B3
:10186800FFF7F8FC2268936908210B43936122680B
:10187800936904398B4393612268936929690B43FF
:10188800936100206FE029000068FFF795FF226848
:10189800916980231B010B43936122689369364940
:1018A8000B40936121688B692A69120213438B618B
:1018B800002058E029000068FFF70AFD2268D36974
:1018C80008210B43D3612268D36904398B43D36160
:1018D8002268D36929690B43D361002043E02900BA
:1018E8000068FFF73BFD2268D16980231B010B4389
:1018F800D3612268D36920490B40D3612168CB6941
:101908002A6912021343CB6100202CE029000068E9
:10191800FFF758FD2268536D08210B435365226871
:10192800536D04398B4353652268536D29690B4302
:101938005365002017E029000068FFF775FD22684D
:10194800516D80231B010B4353652268536D0A496F
:101958000B40536521684B6D2A69120213434B658E
:10196800002000E001203C230022E25470BD022048
:10197800FCE7C046841E0008FFFBFFFF30B5846803
:10198800034D2C401B0213430B432343836030BD9C
:10199800FF00FFFF10B504003C23C35C012B00D1FE
:1019A80078E03C230122C25401330132C254026858
:1019B80093683948034093600B68602B50D02AD84D
:1019C800402B58D00CD9502B23D1CA6849682068BD
:1019D800FFF75EFD50212068FFF780FD002005E03D
:1019E800202B0ED009D9302B0BD001203D2301220A
:1019F800E254013B0022E25410BD002B01D0102B11
:101A080005D119002068FFF769FD0020EEE70120E5
:101A1800ECE70120EAE780225201934236D0802287
:101A2800920193420DD1CB684A6889682068FFF714
:101A3800A5FF226891688023DB010B439360002097
:101A4800D4E7702B24D1CB684A6889682068FFF7EF
:101A580095FF2268936877210B4393600020C5E7C0
:101A6800CA6849682068FFF725FD60212068FFF7EC
:101A780035FD0020BAE7CA6849682068FFF708FD05
:101A880040212068FFF72AFD0020AFE70020ADE7DE
:101A98000120ABE70220AFE78800CEFF30B53C233A
:101AA800C35C012B29D03C230122C25401330132EB
:101AB800C254026853689468114DAA4218D0702520
:101AC800AB430D682B43536003680D4A934202D021
:101AD8000C4A934204D1802294438A6814439C6040
:101AE8003D230122C254013B0022C254002030BDD4
:101AF800054D2B404D682B43E1E70220F7E7C04630
:101B0800002C014000040040FFFF0FFF10B53C23EC
:101B1800C35C012B44D03C230122C254214BCA6828
:101B280013408A681343204A13404A6813431F4AE4
:101B380013400A6813431E4A13400A6913431D4A97
:101B480013404A6913431C4A13400A6B13431B4A48
:101B580013408A69120413430268194CA24208D040
:101B6800174CA2420AD053643C230022C2540020DE
:101B780010BD144C2340CC692343F1E7124C234099
:101B88008C6A24052343114C23400C6A2343104CD0
:101B980023404C6A23430F4C2340C96A0B43E2E7B6
:101BA8000220E5E7FFFCFFFFFFFBFFFFFFF7FFFF5A
:101BB800FFEFFFFFFFDFFFFFFFBFFFFFFFFFF0FFAC
:101BC800002C0140FFFFFFEFFFFF0FFFFFFFFFFEAD
:101BD800FFFFFFFDFFFFFFDF704770477047000002
:101BE8000D488546FEF7CCFB0C480D490D4A0023ED
:101BF80002E0D458C4500433C4188C42F9D30A4ABA
:101C08000A4C002301E013600432A242FBD300F027
:101C180011F8FEF777FBFEE7002000200000002007
:101C28003C040020E81E00083C0400205405002065
:101C3800FEE7000070B50C4D0C4E761BB61005D0B3
:101C4800002408CD01349847A642FAD100F0EAF8FA
:101C5800074D084E761BB61005D0002408CD013478
:101C68009847A642FAD170BDDC1E0008DC1E0008A9
:101C7800DC1E0008E41E0008F0B50500830749D003
:101C8800541E002A45D003000326CAB202E00135DB
:101C9800013C3ED301332A703342F8D1032C30D9AA
:101CA800FF220A40150215432A0415430F2C34D984
:101CB8002700103F3F093E01B4461E001A001036A7
:101CC8006644156055609560D5601032B242F8D10F
:101CD80001373F01DB190F270C22274022403C0027
:101CE800002A0ED03E1FB608B400A4461A001C1DD8
:101CF800644420C2A242FCD103240136B6009B19D9
:101D08003C40002C05D0C9B21C19197001339C4203
:101D1800FBD1F0BD03001400C0E72700E2E7C0468E
:101D2800034B10B5002B02D0024800F005F810BD97
:101D380000000000511D000810B50100002300221A
:101D4800002000F019F810BD70B5074D074C641B52
:101D5800A41005D0013CA300EB589847002CF9D1FA
:101D680000F066F870BDC046E41E0008E81E0008D2
:101D78007047C0467047C046F0B5D6464F464646FF
:101D8800C0B5264F82B00600386892469846894604
:101D9800FFF7EEFF224B1B680193A423019A5B0017
:101DA800D558002D2ED06C681F2C30DC002E0FD19A
:101DB800631C6B604B460234A40038686351FFF71C
:101DC800D9FF002002B0E0BCBA46B146A846F0BD33
:101DD800882251462800A300EB189950873AA24060
:101DE8008930FF3001681143016084214046490071
:101DF8005850022EDCD12B008D33FF3319680A436B
:101E08001A60D5E715004D35FF35D550CBE7386852
:101E1800FFF7B0FF01204042D4E7C0463804002055
:101E2800D81E0008F8B5C046F8BC08BC9E467047E6
:0C1E3800F8B5C046F8BC08BC9E467047D8
:101E4400000000000000000000000000000000008E
:101E5400000000000000000000000000000000007E
:101E64000100000002000000030000000400000064
:101E74000600000007000000080000000900000040
:101E8400641800086C1900086C1900086C19000823
:101E94008E1800086C1900086C1900086C190008E9
:101EA400BC1800086C1900086C1900086C190008AB
:101EB400E61800086C1900086C1900086C19000871
:101EC400141900086C1900086C1900086C19000832
:081ED4003E1900081000002077
:081EDC00291D0008E1000008C7
:041EE400B900000839
:101EE8000024F400010000000400000000000000CD
:101EF80000000000FC02002064030020CC03002046
:101F080000000000000000000000000000000000C9
:101F180000000000000000000000000000000000B9
:101F280000000000000000000000000000000000A9
:101F38000000000000000000000000000000000099
:101F48000000000000000000000000000000000089
:101F58000000000000000000000000000000000079
:101F68000000000000000000000000000000000069
:101F78000000000000000000000000000000000059
:101F88000000000000000000000000000000000049
:101F98000000000000000000010000000000000038
:101FA8000E33CDAB34126DE6ECDE05000B000000FD
:101FB8000000000000000000000000000000000019
:101FC8000000000000000000000000000000000009
:101FD80000000000000000000000000000000000F9
:101FE80000000000000000000000000000000000E9
:0C23180000000000000000005005002044
:0400000508001BE9EB
:00000001FF
