:020000040800F2
:10000000002000205D210008D51E0008D71E000832
:1000100000000000000000000000000000000000E0
:10002000000000000000000000000000D91E0008D1
:100030000000000000000000DB1E0008DD1E0008BC
:10004000AD21000800000000AD210008AD2100082E
:10005000AD210008AD210008AD210008AD21000848
:1000600000000000E51E0008AD210008AD210008D9
:10007000AD210008AD210008AD21000800000000FE
:10008000AD2100080000000000000000AD210008C4
:1000900000000000AD210008AD210008AD210008DE
:1000A000AD210008AD210008AD210008AD210008F8
:0800B000AD2100080000000072
:1000B80010B5064C2378002B07D1054B002B02D036
:1000C800044800E000BF0123237010BD3C04002059
:1000D80000000000D4230008044B10B5002B03D007
:1000E8000349044800E000BF10BDC04600000000FE
:1000F80040040020D4230008002243088B4274D314
:1001080003098B425FD3030A8B4244D3030B8B4210
:1001180028D3030C8B420DD3FF22090212BA030C19
:100128008B4202D31212090265D0030B8B4219D3FA
:1001380000E0090AC30B8B4201D3CB03C01A52411A
:10014800830B8B4201D38B03C01A5241430B8B4262
:1001580001D34B03C01A5241030B8B4201D30B034B
:10016800C01A5241C30A8B4201D3CB02C01A524172
:10017800830A8B4201D38B02C01A5241430A8B4235
:1001880001D34B02C01A5241030A8B4201D30B021E
:10019800C01A5241CDD2C3098B4201D3CB01C01A38
:1001A800524183098B4201D38B01C01A5241430942
:1001B8008B4201D34B01C01A524103098B4201D330
:1001C8000B01C01A5241C3088B4201D3CB00C01A9D
:1001D800524183088B4201D38B00C01A5241430815
:1001E8008B4201D34B00C01A5241411A00D201463A
:1001F800524110467047FFE701B5002000F006F8AD
:1002080002BDC0460029F7D076E770477047C04660
:1002180010B50400114B1978002901D1012010BD37
:10022800FA208000FFF768FF01000D4B1868FFF700
:1002380063FF00F08DF800280DD1032C01D90120AF
:10024800EDE7013000222100404200F045F8054B5F
:100258001C600020E3E70120E1E7C0460000002021
:10026800080000200400002010B5084A1168802307
:100278005B000B4313600320FFF7CAFF041E02D084
:100288000124200010BD01F08FFFFAE70020024092
:10029800034B1B78034A11685B1813607047C0460C
:1002A8000000002058040020014B18687047C04621
:1002B8005804002070B50400FFF7F6FF0500631C22
:1002C80002D0044B1B78E418FFF7EEFF401BA04256
:1002D800FAD370BD0000002070B5002811DB830838
:1002E800134EC0339B009D5903242040C000FF22B9
:1002F80014008440A54389010A4082402A439A5148
:1003080070BD0F230340083B9B0806339B00094A36
:10031800944663445C6803221040C000FC32150018
:100328008540AC4389010A40824022435A60E7E78E
:1003380000E100E000ED00E0002805DB1F23184085
:100348001E3B8340014A13607047C04600E100E04D
:10035800013880235B0498420FD2094A506009484B
:10036800036A1B021B0AC02109060B430362002310
:10037800936007331360002070470120FCE7C046F4
:1003880010E000E000ED00E0F0B5846CC56C65603D
:10039800046D002C02D0446D856D65600B4F7C6840
:1003A8001C26056C2E400125B5402C437C60046852
:1003B80063608368102B04D0036899600368DA606F
:1003C800F0BD03689A600368D960F9E7000002404D
:1003D80010B50400036C9B08094A944663449B00CB
:1003E8004364FF202368184008381421FFF784FE6F
:1003F800044BA3641F2318401E3B8340E36410BDD5
:1004080000820010800802403F2342681340064AD9
:100418009A1892000265054A4265013B03221A4078
:1004280001239340836570473F82001040090240D2
:1004380070B5041E4DD00568274BE8181421FFF746
:100448005BFE8000206425230222E2542B68234AA5
:1004580013402B6021680A68A368E0680343206999
:10046800034360690343A0690343E0690343206AC7
:10047800034313430B602000FFF7AAFF8023DB012F
:10048800A2689A4218D0626C3F2361680B401360DF
:10049800A36CE26C5A606368013B032B0FD90023FD
:1004A80023656365A3650023E36325220121A15425
:1004B800013AA354002070BD00236360E3E72000E5
:1004C800FFF7A2FF236D00221A60636DA26D5A60C8
:1004D800E9E70120EFE7C046F8FFFDBF0F80FFFF07
:1004E80070B504002420205C012845D02420012573
:1004F80025540130205C012806D08023E3635C3B4F
:100508000022E254012070BD24300135255400201A
:10051800E063256828680126B04328602000FFF7BB
:1005280033FF236B002B1CD0226813680E210B436A
:100538001360636C1A68D20304D5196880225200CC
:100548000A431A60236D002B04D0196880225200D8
:100558000A431A602268136801210B4313600020C4
:10056800D1E72268136804218B431360226813685B
:1005780006310B431360DCE70220C4E770B525237E
:10058800C35C022B03D00423C363012070BD02683F
:1005980013680E218B43136001680A6801239A438C
:1005A8000A60416C0A68134C22400A60124C626867
:1005B8001C21056C29408B4013436360836CC26C1B
:1005C8005A60036D002B06D01A680A490A401A605F
:1005D800436D826D5A6025230122C254013B0022DB
:1005E800C254836B002B02D098470020CEE700202E
:1005F800CCE7C046FFFEFFFF0000024070B5314B5C
:100608001968046825681C23026C134004229A4068
:10061800114216D06A0714D523689B0603D42368B1
:10062800042293432360274C63681C21026C114009
:1006380004228A4013436360036B002B00D0984761
:1006480070BD02229A4011421CD0AA071AD523680D
:100658009B0606D423680A22934323602523093A7C
:10066800C254184C63681C21026C114002228A4053
:100678001343636024230022C254C36A002BDFD0D3
:100688009847DDE708229A401142D9D02B07D7D5E1
:1006980023680E22934323600A4C62681C21036C72
:1006A800194001231D008D402A436260C36325223F
:1006B800835423330022C254436B002BC0D0984785
:1006C800BEE7C04600000240F0B500235AE0846847
:1006D8005F000326BE40B4432600CC68BC403443C8
:1006E8008460446894434A681609012232409A405B
:1006F8002243426056E0DC080834A400265805323C
:100708001A4092000F279740BE430F6997403A005E
:10071800324322505AE0032600E00026A640340067
:100728003C43434E1832920094513468EA43260001
:10073800AE434F68FF0201D52C4326003C4C26608F
:100748006468260016404F68BF0201D52C43260076
:10075800374C66608426A459260016404F68BF03AC
:1007680001D52C432600324C8427E6518026A45913
:1007780022404E68F60301D52A0022432C4D8024DE
:100788002A5101330C682200DA404FD001229A40E6
:10079800250015401442F4D003244E683440013C2F
:1007A800012C94D903224C682240032A09D0C2683C
:1007B8005E000324B440A24314008A68B240224376
:1007C800C26003224C682240022A94D004685E006A
:1007D80003221700B740BC434F683A40B240224357
:1007E8000260C02292024C681442CAD09A081400CF
:1007F8001834A4000E4EA75903241C40E4000F2609
:10080800A640B743A026F605B04286D0094EB042AE
:1008180008D0094EB04207D0084EB04200D17AE75E
:1008280005267BE7012679E7022677E7F0BDC04673
:10083800001802400004005000080050000C00504E
:1008480003690B4201D0012070470020FCE7002A11
:1008580001D0816170478162FCE7000010B5104A41
:10086800136810490B400343136080239B00984290
:1008780001D0002010BD0C4B1B685800C018400068
:100888000A49FFF739FC0130054B5B695B0503D565
:10089800002803D00138F7E70020EBE70320E9E759
:1008A80000700040FFF9FFFF0800002040420F00E1
:1008B80070B582B0041E00D129E20368DB0739D580
:1008C800C14A916838230B40D16803220A40102B93
:1008D80026D0082B26D063688022520293427FD00C
:1008E800A022D202934200D181E0B74B1A68B749DF
:1008F8000A401A601A68B6490A401A606368002BF1
:1009080000D180E0FFF7D0FC0500AF4B1B689B03CC
:1009180010D4FFF7C9FC401B6428F6D90320F7E17F
:10092800032AD6D1A84B1B689B0303D56368002B09
:1009380000D1EFE123689B0731D5A34A936838219A
:100948000B40D16803220A40102B6AD0002B6BD1D0
:100958009D4A1268520503D5E268002A00D1DBE1FE
:10096800994842689B490A40616909020A43426002
:10097800002B0DD1036898490B4021690B43036094
:100988000368DB0A07221A40944BD340944A136049
:10099800944B1868FFF73CFC002800D0BEE12368A0
:1009A8001B0700D481E0884B9A6838231340182B22
:1009B80073D0A369002B00D1B4E0834A136E0121E0
:1009C8000B431366FFF770FC05007F4B1B6E9B07FC
:1009D8006BD4FFF769FC401B0228F6D9032097E186
:1009E800794A116880235B020B43136086E7764BD4
:1009F80019688022D2020A431A60196880225202BA
:100A08000A431A607AE7FFF74FFC05006E4B1B6834
:100A18009B038FD5FFF748FC401B6428F6D90320B9
:100A280076E1022A92D193E7E368002B22D0664A46
:100A3800136869490B4021690B43136011688023CF
:100A48005B000B431360FFF72FFC05005E4B1B6830
:100A58005B0506D4FFF728FC401B0228F6D90320C3
:100A680056E159494B685B4A1340626912021343C5
:100A78004B6094E7544A13685B490B401360FFF7D7
:100A880013FC0500504B1B685B0588D5FFF70CFC71
:100A9800401B0228F6D903203AE14B4B1B6E9B07FB
:100AA80003D5A369002B00D13AE123685B0700D482
:100AB800A2E0454B9A6838231340202B45D0424B7F
:100AC800DB6BDB004AD4404AD16B802040050143F0
:100AD800D163D36B03400193019B0125434B1B68F2
:100AE800DB053DD5A368012B4ED0052B52D0364BE4
:100AF800DA6D01218A43DA65DA6D03318A43DA65F2
:100B0800A368002B50D0FFF7CFFB06002E4BDB6D00
:100B18009B076FD4FFF7C8FB801B354B9842F5D96C
:100B28000320F5E0284A136E01218B431366FFF773
:100B3800BBFB0500244B1B6E9B07B6D5FFF7B4FB28
:100B4800401B0228F6D90320E2E01F4BDB6D9B0710
:100B580052D5A368002B4FD10120D9E00025BDE76D
:100B6800224A116880235B000B431360FFF79CFB4C
:100B780006001E4B1B68DB05B4D4FFF795FB801BF2
:100B88000228F6D90320C3E00F4AD36D01210B4395
:100B9800D365B5E70C4BDA6D04210A43DA65DA6DE3
:100BA80003390A43DA65ABE7FFF77EFB0600064B1D
:100BB800DB6D9B071ED5FFF777FB801B0C4B98421C
:100BC800F5D90320A4E0C04600100240FFFFFEFF55
:100BD800FFFFFBFFFF80FFFFFFC7FFFF0024F400BC
:100BE8000800002004000020FFFEFFFF0070004006
:100BF80088130000012D1ED0E369002B00D191E07D
:100C08004F4A916838220A40102A5ED0022B18D029
:100C18004B4A13684B490B401360FFF745FB040030
:100C2800474B1B689B0149D5FFF73EFB001B022879
:100C3800F6D903206CE0424AD36B43490B40D36397
:100C4800DAE73F4A13683F490B401360FFF72CFB74
:100C580005003B4B1B689B0106D5FFF725FB401B96
:100C68000228F6D9032053E0354AD368374919409A
:100C7800236A606A0343A06A00020343E06A0343ED
:100C8800206B03430B43D360116880235B040B4341
:100C98001360D16880235B050B43D360FFF704FB27
:100CA8000400274B1B689B0106D4FFF7FDFA001BC5
:100CB8000228F6D903202BE0002029E0204AD36837
:100CC80023490B40D360002022E0012B2CD01C4B81
:100CD800DA6803231340216A8B4227D1702313401B
:100CE800616A8B4224D1FE21C9011140A36A1B020B
:100CF80099421FD1F8239B031340E16A8B421BD111
:100D0800520F5207236B9A4218D1002000E00120AD
:100D180002B070BD0120FBE70120F9E70120F7E7E9
:100D28000120F5E70020F3E70120F1E70120EFE7D4
:100D38000120EDE70120EBE70120E9E70120E7E7E3
:100D480000100240FFFFFFFEFFFFFFEF8C80C11F76
:100D5800FCFFFEEF10B52A4B9B6838221A4207D1D8
:100D6800274B1A68D20A072313402648D84010BDDB
:100D7800234B9A6838231340082B3BD0204B9A68A2
:100D880038231340102B0DD01D4B9A68382313407D
:100D9800202B31D01A4B9A6838231340182B26D0B1
:100DA8000020E4E7164AD1680D3B0B40D2681209CF
:100DB800072111400131032B0FD01248FFF79CF98E
:100DC8000F4BDA68120A7F23134058430C4BD9683B
:100DD800490F0131FFF790F9C9E70B48FFF78CF984
:100DE800074BDA68120A7F2313405843EEE7FA20CC
:100DF800C001BCE70448BAE780200002B7E7C04654
:100E0800001002400024F40000127A0070B50400BB
:100E18000D00002800D1AAE0574B1A680723134099
:100E28008B4221D323689A070ED55B0705D5534A11
:100E38009168E023DB010B439360504A9368504963
:100E48000B40A1680B4393602368DB0754D56368A4
:100E5800012B20D0022B3BD0002B3FD1474A1268F0
:100E680052051CD401206AE0434A136807218B43CA
:100E78002B431360FFF718FA06003F4B1A68072345
:100E88001340AB42CED0FFF70FFA801B3D4A904289
:100E9800F3D9032053E0394A1268920369D53749D8
:100EA8008A680720824313438B60FFF7FDF9060029
:100EB800324B9B6838221A406368DB009A421BD089
:100EC800FFF7F2F9801B2F4B9842F1D9032036E047
:100ED8002A4A12689201E2D4012030E0032B05D09F
:100EE800264AD26D9207DAD4012028E0234A126EEE
:100EF8009207D4D4012022E01F4B1A68072313401D
:100F0800AB421DD823685B0706D51C4A93681E4967
:100F18000B40E1680B439360FFF71CFF174B9A687F
:100F2800120A0F2313409B00184A9A581F23134094
:100F3800D840174B1860174B1868FFF769F970BD50
:100F48000D4A136807218B432B431360FFF7ACF955
:100F58000600094B1A6807231340AB42D2D0FFF7AB
:100F6800A3F9801B074B9842F3D90320E7E7012038
:100F7800E5E70120E3E7C0460020024000100240F8
:100F8800FFF0FFFF88130000FF8FFFFF40240008D9
:100F9800080000200400002030B5036A01229343B2
:100FA8000362036A42688469154D2C400D682C431E
:100FB8000225AB438D682B43124DA84205D0124D34
:100FC800A84202D0114DA84205D10825AB43CD68EF
:100FD8002B430425AB430B4DA84205D00A4DA8422C
:100FE80002D00A4DA84205D1094D2A404D692A432D
:100FF8008D692A43426084614A684263036230BD56
:101008008CFFFEFF002C01400044014000480140D5
:10101800FFFCFFFF70B5036A184A13400362036AB6
:101028004468C269164D2A400E681643154A134093
:101038008A6812021343144A904216D0124A904208
:1010480005D0124A904202D0114A904207D1114A63
:1010580022404C69240114438A6915012C434460D9
:10106800C6614A68C263036270BD0B4A1A40CB6806
:101078001B021343094A1340E0E7C046FFFEFFFF87
:101088008CFFFEFFFFFDFFFF002C014000440140E4
:1010980000480140FFCFFFFFFFF7FFFFFFFBFFFF07
:1010A80030B5036A114A13400362036A4568C2698E
:1010B8000F4C22400C68240222430E4C1C408B68C3
:1010C8001B0323430C4CA04205D00C4CA04202D079
:1010D8000B4CA04204D10B4C25404C69A40125437C
:1010E8004560C2614A680264036230BDFFEFFFFFDA
:1010F800FF8CFFFEFFDFFFFF002C01400044014092
:1011080000480140FFBFFFFF30B5036A114A134092
:101118000362036A4268446D0F4D2C400D682C43EE
:101128000E4D1D408B681B042B430D4DA84205D066
:101138000C4DA84202D00C4DA84204D1054D2A40BE
:101148004D692D022A43426044654A6882650362FC
:1011580030BDC046FFFFFEFF8FFFFEFFFFFFFDFF14
:10116800002C0140004401400048014030B5036AAA
:10117800114A13400362036A4568426D0F4C2240CE
:101188000C68240222430E4C1C408B681B05234329
:101198000C4CA04205D00C4CA04202D00B4CA042F3
:1011A80004D10B4C25404C69A40225434560426597
:1011B8004A68C265036230BDFFFFEFFFFF8FFFFE85
:1011C800FFFFDFFF002C01400044014000480140C0
:1011D800FFFFFBFF10B5846A636A83420ED0A36ADF
:1011E800834214D0E36A83421AD0236B834220D00F
:1011F800200000F063FE0023237710BD012323772E
:10120800C369002BF4D13E330122E254F0E70223F4
:101218002377C369002BEBD13F330122E254E7E780
:1012280004232377C369002BE2D140330122E2541F
:10123800DEE708232377C369002BD9D14133012284
:10124800E254D5E7704710B5846A636A83420BD0CD
:10125800A36A834210D0E36A834210D0236B83428F
:1012680004D10823237701E0012323772000FFF727
:10127800E9FF0023237710BD02232377F6E7042331
:101288002377F3E7704710B5846A636A83420CD00A
:10129800A36A834213D0E36A834216D0236B834246
:1012A80019D03D230122E25403E0012323773E2293
:1012B800A3542000FFF7E6FF0023237710BD022385
:1012C80023773D330122E254F3E7042323773C33A9
:1012D8000122E254EDE70823237739330122E2544F
:1012E800E7E7000003681A4A904202D0194A904280
:1012F80003D1702293434A681343154A90420BD096
:10130800144A904208D0144A904205D0134A904299
:1013180002D0134A904203D1124A1340CA681343B9
:10132800802293434A69134303608B68C3620B6846
:101338008362074B984205D0084B984202D0084B6D
:10134800984201D10B690363012343617047C0468A
:10135800002C0140000400400020004000440140EF
:1013680000480140FFFCFFFF70B5041E2AD03D2352
:10137800C35C002B20D03D2502236355210001C901
:10138800FFF7B0FF01234822A3540A3AA3540132BD
:10139800A3540132A3540132A3540132A35401329D
:1013A800A3540132A3540132A3540132A35401328D
:1013B800A3546355002070BD3C330022C25400F092
:1013C80095FDD8E70120F6E730B5036A102293436C
:1013D8000362036A45688469164A14400A6812025F
:1013E8001443202293438A6812011343124A9042FD
:1013F80016D0114A904205D0104A904202D0104AA5
:10140800904207D10F4A2A404D69AD0015438A69B9
:1014180092001543456084614A688263036230BD67
:10142800802293431A00CB681B0113434022934345
:10143800DFE7C046FF8CFFFE002C0140004401405E
:1014480000480140FFF3FFFF70B504000D003C2386
:10145800C35C012B00D192E03C230121C154142A22
:1014680000D987E09200474B9B589F4629000068A7
:10147800FFF792FD2268936908210B439361226864
:10148800936904398B4393612268936929690B43F3
:10149800936100206FE029000068FFF795FF22683C
:1014A800916980231B010B43936122689369364934
:1014B8000B40936121688B692A69120213438B617F
:1014C800002058E029000068FFF7A4FD2268D369CE
:1014D80008210B43D3612268D36904398B43D36154
:1014E8002268D36929690B43D361002043E02900AE
:1014F8000068FFF7D5FD2268D16980231B010B43E3
:10150800D3612268D36920490B40D3612168CB6934
:101518002A6912021343CB6100202CE029000068DD
:10152800FFF7F2FD2268536D08210B4353652268CB
:10153800536D04398B4353652268536D29690B43F6
:101548005365002017E029000068FFF70FFE2268A6
:10155800516D80231B010B4353652268536D0A4963
:101568000B40536521684B6D2A69120213434B6582
:10157800002000E001203C230022E25470BD02203C
:10158800FCE7C046EC230008FFFBFFFF10B51F2354
:10159800194001248C40036AA3430362036A8A400A
:1015A8001343036210BD000010B5040000292CD1BC
:1015B8003E23C35C013B5A1E9341DBB2002B79D119
:1015C80000294DD13E330222E25401222068FFF760
:1015D800DDFF23683A4A934205D03A4A934202D043
:1015E800394A934204D1596C802212020A435A6440
:1015F8002368334A93424FD0344A93424CD01A68F6
:1016080001210A431A60002055E004290CD008295A
:1016180011D00C2916D010291BD04323C35C013BE1
:101628005A1E9341DBB2C9E73F23C35C013B5A1EF4
:101638009341DBB2C2E74023C35C013B5A1E93418E
:10164800DBB2BBE74123C35C013B5A1E9341DBB2CB
:10165800B4E74223C35C013B5A1E9341DBB2ADE7BA
:10166800042909D008290BD00C290DD010290FD036
:1016780043230222E254A8E73F230222E254A4E7CC
:1016880040230222E254A0E741230222E2549CE7CD
:1016980042230222E25498E79A680D490A40062A32
:1016A8000AD007398A4209D01A6801210A431A6008
:1016B800002000E0012010BD0020FCE70020FAE730
:1016C800002C014000440140004801400004004053
:1016D8000700010070B506000C001100002C41D174
:1016E8003E22855C023D6A425541EDB2002D00D094
:1016F80024E1002C61D13E22B25C013A50424241C1
:10170800D2B2002A00D11BE1002900D11AE1002B36
:1017180000D119E1002C7BD13E220220B054082CC4
:1017280000D1E6E000D991E0002C00D1AAE0042C19
:1017380000D089E0B26A8B48D062B26A8A481063E6
:10174800B26A8A48506332683832B06AFEF7C8FE17
:10175800002800D0FCE03268D1688023DB000B430E
:10176800D360A5E0042C0CD0082C11D00C2C16D07A
:10177800102C1BD04322855C023D6A425541EDB2D4
:10178800B4E73F22855C023D6A425541EDB2ADE7C0
:101798004022855C023D6A425541EDB2A6E74122EE
:1017A800855C023D6A425541EDB29FE74222855C65
:1017B800023D6A425541EDB298E7042C0CD0082C42
:1017C80011D00C2C16D0102C1BD04322B25C013A3D
:1017D80050424241D2B294E73F22B25C013A5042B1
:1017E8004241D2B28DE74022B25C013A50424241B6
:1017F800D2B286E74122B25C013A50424241D2B2AB
:101808007FE74222B25C013A50424241D2B278E7C5
:10181800042C09D0082C0BD00C2C0DD0102C0FD078
:1018280043220220B0547AE73F220220B05476E7E0
:1018380040220220B05472E741220220B0546EE7E1
:1018480042220220B0546AE701207AE00C2C17D11A
:10185800326B4448D062326B43481063326B434862
:10186800506332684032306BFEF73AFE002800D0F1
:1018780072E03268D16880235B010B43D36017E0C4
:1018880001205EE0726A3748D062726A3648106397
:10189800726A3648506332683432706AFEF720FE46
:1018A800002853D13268D16880239B000B43D36052
:1018B800012221003068FFF769FE33682C4A934201
:1018C80005D02C4A934202D02B4A934204D1596C3A
:1018D800802212020A435A643368254A93421FD071
:1018E800264A93421CD01A6801210A431A60002034
:1018F80027E0F26A1B48D062F26A1B481063F26A5A
:101908001A48506332683C32F06AFEF7E9FD002855
:1019180020D13268D16880231B010B43D360C7E70D
:101928009A6817490A40062A18D007398A4217D0F8
:101938001A6801210A431A60002002E0022000E030
:10194800012070BD0120FCE70120FAE70120F8E73B
:101958000120F6E70120F4E70120F2E70020F0E794
:101968000020EEE7DD1100084F1200088F12000872
:10197800002C0140004401400048014000040040A0
:101988000700010070B505000C00082947D00ED8E3
:10199800002919D0042908D10268D3683B490B40B3
:1019A800D360806AFEF7EAFD16E0012036E00C29D4
:1019B80008D10268D36836490B40D360006BFEF744
:1019C800DDFD09E0012029E00268D36831490B40B8
:1019D800D360406AFEF7D2FD002221002868FFF795
:1019E800D5FD2B682C4A934222D02C4A93421FD013
:1019F8002B4A93421CD02B68196A2A4A114207D1F4
:101A0800196A294A114203D11A6801218A431A60C6
:101A1800002C1AD13E230122EA54002070BD02682E
:101A2800D36822490B40D360C06AFEF7A7FDD3E70D
:101A3800196A1C4A1142DED1196A1B4A1142DAD1CD
:101A48005A6C1B490A405A64D5E7042C0AD0082C62
:101A58000DD00C2C10D0102C13D043230122EA54A3
:101A68000020DBE73F230122EA540020D6E7402389
:101A78000122EA540020D1E741230122EA54002040
:101A8800CCE742230122EA540020C7E7FFFBFFFF0F
:101A9800FFEFFFFFFFFDFFFF002C01400044014066
:101AA800004801401111000044040000FFF7FFFF47
:101AB800FF7FFFFF30B53C23C35C012B29D03C23BB
:101AC8000122C25401330132C25402685368946837
:101AD800114DAA4218D07025AB430D682B435360B3
:101AE80003680D4A934202D00C4A934204D18022E3
:101AF80094438A6814439C603D230122C254013BED
:101B08000022C254002030BD054D2B404D682B43A8
:101B1800E1E70220F7E7C046002C0140000400403E
:101B2800FFFF0FFF10B53C23C35C012B44D03C23BF
:101B38000122C254214BCA6813408A681343204AC1
:101B480013404A6813431F4A13400A6813431E4A46
:101B580013400A6913431D4A13404A6913431C4A38
:101B680013400A6B13431B4A13408A691204134338
:101B78000268194CA24208D0174CA2420AD05364FA
:101B88003C230022C254002010BD144C2340CC69D1
:101B98002343F1E7124C23408C6A24052343114C5C
:101BA80023400C6A2343104C23404C6A23430F4CB8
:101BB8002340C96A0B43E2E70220E5E7FFFCFFFF89
:101BC800FFFBFFFFFFF7FFFFFFEFFFFFFFDFFFFF59
:101BD800FFBFFFFFFFFFF0FF002C0140FFFFFFEFFB
:101BE800FFFF0FFFFFFFFFFEFFFFFFFDFFFFFFDF10
:101BF80010B5034B034A04210348FFF76BFD10BDE2
:101C0800340700005C0400206C13002070B586B017
:101C180005000E001400294A0021294800F000FBA5
:101C2800002306E03A226946CA547600F6B2013328
:101C38009BB2072B04D872B2002AF3DB1622F2E714
:101C4800002308E03A211A000832684681546D00E2
:101C5800EDB201339BB2072B04D86AB2002AF1DB3C
:101C68001621F0E7002308E03A211A0010326846EE
:101C780081546400E4B201339BB2072B04D862B2EA
:101C8800002AF1DB1621F0E700210EE04B005B187B
:101C9800DB00D3186846845C5B0009481C5201329B
:101CA80092B2172AF2D9013189B2372901D8002214
:101CB800F7E7FFF79DFF06B070BDC0463407000088
:101CC8005C04002000B583B0094A916B01231943D5
:101CD8009163926B13400193019B0022002109201C
:101CE800FEF7FAFA0920FEF727FB03B000BDC0464D
:101CF80000100240F0B587B01422002101A800F0BE
:101D08008FFA124B5A6B012632435A635B6B33408E
:101D18000093009B80277F01A025ED050122390053
:101D28002800FEF794FD4F230193002402940394A6
:101D380001A92800FEF7C8FC0197029603940494B1
:101D480001A92800FEF7C0FC07B0F0BD0010024052
:101D580010B5A0200121C005FEF772FD002813D0A0
:101D6800A0200221C005FEF76BFD00281DD0A02091
:101D78000421C005FEF764FD002827D0A020082113
:101D8800C005FEF75DFD10BD1A4BE122D2005A6373
:101D98000B220B21FF30FFF739FFA0200121C005DE
:101DA800FEF74EFD0028F8D0DAE7124BFA22D200EF
:101DB8005A637F2214211430FFF728FFA020022144
:101DC800C005FEF73DFD0028F8D0D0E7094BE12219
:101DD800D2005A630A30FEF76DFA00220021002073
:101DE800FFF714FFA0200421C005FEF729FD0028F5
:101DF800F8D0C3E7002C014072B6FEE700B593B0F7
:101E08003422002105A800F00BFA1022002101A8B5
:101E180000F006FA80208000FEF720FD02230593DB
:101E28008022520008920022099240210A910C93C4
:101E38000D930E9206330F9380239B0210938023F9
:101E48009B05119305A8FEF733FD00280ED1072343
:101E58000193053B0293002303930493022101A8F5
:101E6800FEF7D4FF002803D113B000BDFFF7C4FF6D
:101E7800FFF7C2FF10B5FEF7F7F9FFF7BFFFFFF74F
:101E880039FFFFF71FFF00F0B9F800F021F9002132
:101E98000748FFF789FB074B074A5A638021A020B0
:101EA80000224901C005FEF7D2FCFFF751FFF5E714
:101EB80020130020002C01401027000010B5082135
:101EC8000148FFF75FFD10BD6C130020FEE7FEE739
:101ED8007047704710B5FEF7DBF910BD10B5024822
:101EE800FEF78CFB10BDC046C412002010B582B0AE
:101EF800040003681C4A934204D01C4A93420CD045
:101F080002B010BD1A4A116C80200001014311640F
:101F1800136C03400093009BF2E7154AD16B022330
:101F28001943D163D26B13400193019B1148124BA3
:101F3800036021234360113B83600023C360802238
:101F48000261803242618022D2008261C3610362F1
:101F5800FEF76EFA002803D1064BA3629C62CFE716
:101F6800FFF74AFFF8E7C046002C01400004004094
:101F780000100240C41200200800024010B588B0CA
:101F880004001422002103A800F04AF92368184A23
:101F9800934204D0174A934216D008B010BD164A8F
:101FA800516B012319435163526B13400193019BF9
:101FB80080235B000393FE3B04930793A02003A9AF
:101FC800C005FEF781FBE8E70B4A516B0123194373
:101FD8005163526B1A400292029A802203927E3A0F
:101FE80004920793A02003A9C005FEF76DFBD4E770
:101FF800002C0140000400400010024000B599B0D8
:102008000C22002115A800F00BF91C2200210EA8B3
:1020180000F006F93422002101A800F001F929484E
:10202800294B03603F23436000238360274AC26033
:10203800036143618361FFF797F9002836D10023D4
:1020480015931693179315A91E48FFF733FD00281B
:102058002FD160230E9300230F93109311931293A3
:102068001393149300220EA91648FFF7EDF90028E0
:1020780022D10023019302930393049305938022B2
:1020880092010692079308930993802292040A9278
:102098000B930C930D9301A90A48FFF743FD002801
:1020A8000DD10848FFF76AFF19B000BDFFF7A4FE7D
:1020B800C5E7FFF7A1FECCE7FFF79EFED9E7FFF7DC
:1020C8009BFEEEE720130020002C0140204E00006C
:1020D80000B58BB00C22002107A800F0A1F81C2243
:1020E8000021684600F09CF81848194B036000234B
:1020F800436083605022C26003618361FFF734F953
:1021080000281AD100230793099307A90F48FFF75E
:10211800D1FC002814D1602300930023019302937B
:102128000493042269460948FFF78EF900280AD16A
:102138000648FFF723FF0BB000BDFFF75DFEE1E7A0
:10214800FFF75AFEE7E7FFF757FEF1E76C130020A9
:10215800000400400D48854600F03EF80C480D4943
:102168000D4A002302E0D458C4500433C4188C42EA
:10217800F9D30A4A0A4C002301E013600432A24250
:10218800FBD300F02BF8FFF775FEFEE700200020D8
:10219800000000203C040020902400083C0400209B
:1021A800BC130020FEE7000082B00A4B196C012224
:1021B80011431964196C0A400092009ADA6B802165
:1021C80049050A43DA63DB6B0B400193019B02B0BC
:1021D8007047C046001002407047000070B50C4DB3
:1021E8000C4E761BB61005D0002408CD0134984754
:1021F800A642FAD100F0EAF8074D084E761BB61051
:1022080005D0002408CD01349847A642FAD170BD04
:102218008424000884240008842400088C240008EE
:10222800F0B50500830749D0541E002A45D00300A5
:102238000326CAB202E00135013C3ED301332A70BD
:102248003342F8D1032C30D9FF220A401502154336
:102258002A0415430F2C34D92700103F3F093E01AB
:10226800B4461E001A001036664415605560956025
:10227800D5601032B242F8D101373F01DB190F2780
:102288000C22274022403C00002A0ED03E1FB608F0
:10229800B400A4461A001C1D644420C2A242FCD10A
:1022A80003240136B6009B193C40002C05D0C9B266
:1022B8001C19197001339C42FBD1F0BD03001400B6
:1022C800C0E72700E2E7C046034B10B5002B02D059
:1022D800024800F005F810BD00000000F9220008CF
:1022E80010B5010000230022002000F019F810BDED
:1022F80070B5074D074C641BA41005D0013CA30022
:10230800EB589847002CF9D100F066F870BDC0462C
:102318008C240008902400087047C0467047C046C7
:10232800F0B5D6464F464646C0B5264F82B00600A1
:102338003868924698468946FFF7EEFF224B1B689D
:102348000193A423019A5B00D558002D2ED06C6808
:102358001F2C30DC002E0FD1631C6B604B460234FF
:10236800A40038686351FFF7D9FF002002B0E0BC31
:10237800BA46B146A846F0BD882251462800A300B7
:10238800EB189950873AA2408930FF300168114311
:1023980001608421404649005850022EDCD12B00B0
:1023A8008D33FF3319680A431A60D5E715004D3598
:1023B800FF35D550CBE73868FFF7B0FF0120404222
:1023C800D4E7C0463804002080240008F8B5C04689
:1023D800F8BC08BC9E467047F8B5C046F8BC08BCB7
:0423E8009E46704756
:1023EC00741400087C1500087C1500087C15000886
:1023FC009E1400087C1500087C1500087C1500084C
:10240C00CC1400087C1500087C1500087C1500080D
:10241C00F61400087C1500087C1500087C150008D3
:10242C00241500087C1500087C1500087C15000894
:10243C004E15000800000000000000000000000025
:10244C000000000000000000000000000000000080
:10245C00000000000100000002000000030000006A
:10246C000400000006000000070000000800000047
:08247C0009000000100000201F
:08248400D1220008E10000086C
:04248C00B90000088B
:1024900001000000040000000024F400000000001F
:1024A00000000000FC02002064030020CC03002098
:1024B000000000000000000000000000000000001C
:1024C000000000000000000000000000000000000C
:1024D00000000000000000000000000000000000FC
:1024E00000000000000000000000000000000000EC
:1024F00000000000000000000000000000000000DC
:1025000000000000000000000000000000000000CB
:1025100000000000000000000000000000000000BB
:1025200000000000000000000000000000000000AB
:10253000000000000000000000000000000000009B
:10254000000000000000000001000000000000008A
:102550000E33CDAB34126DE6ECDE05000B0000004F
:10256000000000000000000000000000000000006B
:10257000000000000000000000000000000000005B
:10258000000000000000000000000000000000004B
:10259000000000000000000000000000000000003B
:0C28C0000000000000000000B813002021
:040000050800215D71
:00000001FF
